{
  "contractName": "HealthRecorder",
  "abi": [
    {
      "constant": true,
      "inputs": [
        {
          "name": "patient",
          "type": "address"
        }
      ],
      "name": "getRecord",
      "outputs": [
        {
          "name": "",
          "type": "string"
        }
      ],
      "payable": false,
      "stateMutability": "view",
      "type": "function"
    },
    {
      "constant": false,
      "inputs": [
        {
          "name": "patient",
          "type": "address"
        },
        {
          "name": "recordCipherText",
          "type": "string"
        }
      ],
      "name": "setRecord",
      "outputs": [],
      "payable": false,
      "stateMutability": "nonpayable",
      "type": "function"
    }
  ],
  "bytecode": "0x6060604052341561000f57600080fd5b6103a18061001e6000396000f30060606040526004361061004c576000357c0100000000000000000000000000000000000000000000000000000000900463ffffffff168063617fba0414610051578063cc186baf14610103575b600080fd5b341561005c57600080fd5b610088600480803573ffffffffffffffffffffffffffffffffffffffff1690602001909190505061017f565b6040518080602001828103825283818151815260200191508051906020019080838360005b838110156100c85780820151818401526020810190506100ad565b50505050905090810190601f1680156100f55780820380516001836020036101000a031916815260200191505b509250505060405180910390f35b341561010e57600080fd5b61017d600480803573ffffffffffffffffffffffffffffffffffffffff1690602001909190803590602001908201803590602001908080601f01602080910402602001604051908101604052809392919081815260200183838082843782019150505050505091905050610265565b005b6101876102bc565b6000808373ffffffffffffffffffffffffffffffffffffffff1673ffffffffffffffffffffffffffffffffffffffff1681526020019081526020016000208054600181600116156101000203166002900480601f0160208091040260200160405190810160405280929190818152602001828054600181600116156101000203166002900480156102595780601f1061022e57610100808354040283529160200191610259565b820191906000526020600020905b81548152906001019060200180831161023c57829003601f168201915b50505050509050919050565b806000808473ffffffffffffffffffffffffffffffffffffffff1673ffffffffffffffffffffffffffffffffffffffff16815260200190815260200160002090805190602001906102b79291906102d0565b505050565b602060405190810160405280600081525090565b828054600181600116156101000203166002900490600052602060002090601f016020900481019282601f1061031157805160ff191683800117855561033f565b8280016001018555821561033f579182015b8281111561033e578251825591602001919060010190610323565b5b50905061034c9190610350565b5090565b61037291905b8082111561036e576000816000905550600101610356565b5090565b905600a165627a7a72305820e9c428b25d6173b81c7328c08fef36d13ae53bded09f710516a7a41562b5e46d0029",
  "source": "pragma solidity ^0.4.18;\n\ncontract HealthRecorder\n{\n\tmapping (address => string) healthRecords;\n\n\tfunction setRecord(address patient, string recordCipherText) public\n\t{\n\t\thealthRecords[patient] = recordCipherText;\n\t}\n\n\tfunction getRecord(address patient) public constant returns(string)\n\t{\n\t\treturn healthRecords[patient];\n\t}\n}",
  "sourcePath": "/Users/chris/Projects/blockchain_emr_challenge/contracts/health_recorder.sol",
  "compiler": {
    "name": "solc",
    "version": "0.4.18+commit.9cf6e910.Emscripten.clang"
  },
  "schemaVersion": "1.0.1",
  "updatedAt": "2017-12-19T23:57:32.272Z"
}